:100000000C942A000C9447000C9447000C94470071
:100010000C9447000C9447000C9447000C94470044
:100020000C9447000C9447000C94D2010C94F901F5
:100030000C9447000C9447000C9447000C94470024
:100040000C9447000C9447000C9447000C94470014
:100050000C94470011241FBECFE5D8E0DEBFCDBF12
:1000600010E0A0E6B0E0E6EBF7E002C005900D92EC
:10007000AC36B107D9F720E0ACE6B0E001C01D9284
:10008000A437B207E1F70E9486030C94D9030C94BD
:100090000000803CB9F028F4803A31F0803B59F000
:1000A0000895803DB1F0089581E0611101C080E0C4
:1000B00081958ABB089581E0611101C080E081953E
:1000C00087BB089581E0611101C080E0819584BB08
:1000D000089581E0611101C080E0819581BB0895A0
:1000E000803C69F028F4803A31F0803B31F008958B
:1000F000803D39F008956BBB089568BB089565BBDA
:10010000089562BB0895803C69F028F4803A31F08C
:10011000803B31F00895803D39F0089589B308950A
:1001200086B3089583B3089580B30895982F907F80
:10013000903C79F128F4903A31F0903BB9F0089571
:10014000903DD1F108958F7021E030E0A90102C007
:10015000440F551F8A95E2F7CA019AB3611519F049
:10016000892B8ABB089580958923FBCF8F7021E06E
:1001700030E0A90102C0440F551F8A95E2F7CA0179
:1001800097B3611519F0892B87BB08958095892352
:10019000FBCF8F7021E030E0A90102C0440F551F52
:1001A0008A95E2F7CA0194B3611519F0892B84BBD3
:1001B000089580958923FBCF8F7021E030E0A9015D
:1001C00002C0440F551F8A95E2F7CA0191B3611529
:1001D00019F0892B81BB089580958923FBCF982F37
:1001E000907F903C79F128F4903A31F0903BB9F04F
:1001F0000895903DD1F108958F7021E030E0A9017C
:1002000002C0440F551F8A95E2F7CA019BB36115DE
:1002100019F0892B8BBB089580958923FBCF8F70B4
:1002200021E030E0A90102C0440F551F8A95E2F792
:10023000CA0198B3611519F0892B88BB0895809580
:100240008923FBCF8F7021E030E0A90102C0440F69
:10025000551F8A95E2F7CA0195B3611519F0892BEC
:1002600085BB089580958923FBCF8F7021E030E016
:10027000A90102C0440F551F8A95E2F7CA0192B343
:10028000611519F0892B82BB089580958923FBCFD6
:10029000282F807F803CB1F028F4803A31F0803BF9
:1002A00079F00895803D81F0089599B3892F90E009
:1002B0002F7002C0959587952A95E2F78170089571
:1002C00096B3F4CF93B3F2CF90B3F0CF811521F072
:1002D00080B7846080BF089580B78B7FFBCFCF92BB
:1002E000DF92EF92FF920F9340936D0020936C008A
:1002F000F0927100E0927000D0926F00C0926E0098
:10030000862B83BF0CBF8091700090917100892B68
:1003100021F189B7826089BF80917000909171004E
:10032000892BF1F088B7826088BF80916E00909130
:100330006F00892BC1F089B7816089BF80916E0001
:1003400090916F00892B91F088B7816088BF0F91E1
:10035000FF90EF90DF90CF90089589B78D7FDBCF2E
:1003600088B78D7FE1CF89B78E7FE7CF88B78E7F43
:10037000EDCF80916C0082BF83B790916D00892B87
:1003800083BF089583B78B7F83BF83B78D7F83BF80
:1003900083B78E7F83BF089582BF089582B7089583
:1003A0008CBF08951F920F920FB60F9211242F93B6
:1003B0003F934F935F936F937F938F939F93AF93ED
:1003C000BF93EF93FF93E0917000F0917100099556
:1003D000FF91EF91BF91AF919F918F917F916F911D
:1003E0005F914F913F912F910F900FBE0F901F90F3
:1003F00018951F920F920FB60F9211242F933F93CF
:100400004F935F936F937F938F939F93AF93BF931C
:10041000EF93FF93E0916E00F0916F000995FF91CB
:10042000EF91BF91AF919F918F917F916F915F916C
:100430004F913F912F910F900FBE0F901F901895E5
:10044000CF93DF93C4E6D0E061E089910E949600EB
:1004500080E0C836D807C1F7C0E6D0E060E08991F7
:100460000E94960080E0C436D807C1F7DF91CF9193
:100470000895AF92BF92CF92DF92EF92FF920F93C7
:100480001F93CF93DF93EC01188260E085EC0E940C
:10049000EF0060E084EC0E94EF0060E083EC0E94DB
:1004A000EF0060E082EC0E94EF008FE99FE001978F
:1004B000F1F700C0000090E6E92E90E0F92E11E17E
:1004C0008881811102C0153159F4DF91CF911F91BC
:1004D0000F91FF90EF90DF90CF90BF90AF90089575
:1004E000F701D1907F018D2D0E944801811511F0F7
:1004F0001F5FE6CF61E085EC0E94EF0061E084ECD5
:100500000E94EF0061E083EC0E94EF0061E082EC6A
:100510000E94EF0000EF010F84E6A82E80E0B82EC5
:1005200088818111E5CF101719F3F501C1905F01A2
:1005300060E08C2D0E94EF008FE99FE00197F1F7BA
:1005400000C000008D2D0E944801811101C0088368
:1005500061E08C2D0E94EF000C5FE2CFCF93DF9320
:10056000811571F18150C82FC370E82FE695E6958B
:10057000F0E0EC59FF4FD08160E08D2F0E94EF003A
:100580008FE99FE00197F1F700C00000EC2FF0E049
:10059000E05AFF4FC0818C2F0E944801811531F035
:1005A00061E08D2FDF91CF910C94EF009FEF26E754
:1005B00081E0915020408040E1F700C00000EBCF87
:1005C000DF91CF910895CF93CFEFC80FEC2FE69531
:1005D000E695F0E0EC59FF4F60E080810E94EF006B
:1005E0008FE99FE00197F1F700C00000C370EC2F86
:1005F000F0E0E05AFF4F80810E944801982F81E08F
:10060000911180E0CF910895CF93DF9361E080EB6B
:100610000E94960061E081EB0E94960061E082EB0F
:100620000E94960061E084EB0E949600C8E6D0E04C
:1006300061E088810E94960061E089910E94EF004C
:1006400080E0CC36D807A1F7DF91CF910895909341
:1006500073008093720008959F92AF92BF92CF92E1
:10066000DF92EF92FF920F931F93CF93DF93D0917E
:100670007200F090730008E610E08AE0A82EB12C1A
:100680008D2F9F2DB5010E94C503962EE72EC82FF2
:1006900060E0F80181918F010E94EF006C2F617082
:1006A00080EB0E94EF006C2F627081EB0E94EF00E4
:1006B0006C2F647082EB0E94EF006C2F687084EBEB
:1006C0000E94EF00CD2EDF2CD92DFE2C8FE99FE06C
:1006D0000197F1F700C00000F801319761E08081D7
:1006E0000E94EF009AE0C916D10420F0E0E00C3639
:1006F0001E0731F6DF91CF911F910F91FF90EF9080
:10070000DF90CF90BF90AF909F9008950F92CDB79C
:10071000DEB70E9420020E94040380E090E00E9465
:1007200027038CE2C82E83E0D82EE12CF12C00E0C8
:1007300020E045E060E080E00E946F010E94B90186
:10074000789410E0CE0101960E94390289818230AE
:1007500031F08330B9F0813019F410E001C011504C
:100760000E94E302811571F3812F90E00E9427031C
:100770002FEF83EC99E0215080409040E1F700C0DA
:100780000000E0CF1F5F1436E7CFAA1BBB1B51E16F
:1007900007C0AA1FBB1FA617B70710F0A61BB70BF1
:1007A000881F991F5A95A9F780959095BC01CD0196
:0607B0000895F894FFCF4C
:0C07B600D7D6D5D3C5C4C3C2A3A2B5B624
:00000001FF
